{
  "_format": "hh3-artifact-1",
  "contractName": "Polling",
  "sourceName": "contracts/Polling.sol",
  "abi": [
    {
      "inputs": [],
      "stateMutability": "nonpayable",
      "type": "constructor"
    },
    {
      "anonymous": false,
      "inputs": [
        {
          "indexed": true,
          "internalType": "uint256",
          "name": "proposalId",
          "type": "uint256"
        },
        {
          "indexed": false,
          "internalType": "string",
          "name": "description",
          "type": "string"
        }
      ],
      "name": "ProposalCreated",
      "type": "event"
    },
    {
      "anonymous": false,
      "inputs": [
        {
          "indexed": true,
          "internalType": "address",
          "name": "voter",
          "type": "address"
        },
        {
          "indexed": true,
          "internalType": "uint256",
          "name": "_proposalIdVotedFor",
          "type": "uint256"
        },
        {
          "indexed": false,
          "internalType": "enum Polling.VoteOptions",
          "name": "choice",
          "type": "uint8"
        }
      ],
      "name": "Voted",
      "type": "event"
    },
    {
      "inputs": [
        {
          "internalType": "string",
          "name": "_description",
          "type": "string"
        }
      ],
      "name": "addProposal",
      "outputs": [],
      "stateMutability": "nonpayable",
      "type": "function"
    },
    {
      "inputs": [],
      "name": "owner",
      "outputs": [
        {
          "internalType": "address",
          "name": "",
          "type": "address"
        }
      ],
      "stateMutability": "view",
      "type": "function"
    },
    {
      "inputs": [
        {
          "internalType": "uint256",
          "name": "",
          "type": "uint256"
        }
      ],
      "name": "proposals",
      "outputs": [
        {
          "internalType": "string",
          "name": "description",
          "type": "string"
        },
        {
          "internalType": "uint256",
          "name": "yesCount",
          "type": "uint256"
        },
        {
          "internalType": "uint256",
          "name": "noCount",
          "type": "uint256"
        }
      ],
      "stateMutability": "view",
      "type": "function"
    },
    {
      "inputs": [
        {
          "internalType": "uint256",
          "name": "_proposalId",
          "type": "uint256"
        },
        {
          "internalType": "enum Polling.VoteOptions",
          "name": "_choice",
          "type": "uint8"
        }
      ],
      "name": "vote",
      "outputs": [],
      "stateMutability": "nonpayable",
      "type": "function"
    },
    {
      "inputs": [
        {
          "internalType": "uint256",
          "name": "",
          "type": "uint256"
        },
        {
          "internalType": "address",
          "name": "",
          "type": "address"
        }
      ],
      "name": "votes",
      "outputs": [
        {
          "internalType": "enum Polling.VoteOptions",
          "name": "",
          "type": "uint8"
        }
      ],
      "stateMutability": "view",
      "type": "function"
    }
  ],
  "bytecode": "0x6080604052348015600e575f5ffd5b505f80546001600160a01b031916331790556108b18061002d5f395ff3fe608060405234801561000f575f5ffd5b5060043610610055575f3560e01c8063013cf08b146100595780632fdae3c5146100845780638da5cb5b14610099578063943e8216146100c3578063d23254b4146100d6575b5f5ffd5b61006c610067366004610521565b610110565b60405161007b93929190610566565b60405180910390f35b61009761009236600461059e565b6101cb565b005b5f546100ab906001600160a01b031681565b6040516001600160a01b03909116815260200161007b565b6100976100d1366004610651565b6102d3565b6101036100e4366004610682565b600260209081525f928352604080842090915290825290205460ff1681565b60405161007b91906106c4565b6001818154811061011f575f80fd5b905f5260205f2090600302015f91509050805f01805461013e906106ea565b80601f016020809104026020016040519081016040528092919081815260200182805461016a906106ea565b80156101b55780601f1061018c576101008083540402835291602001916101b5565b820191905f5260205f20905b81548152906001019060200180831161019857829003601f168201915b5050505050908060010154908060020154905083565b5f546001600160a01b031633146102215760405162461bcd60e51b81526020600482015260156024820152744f6e6c79206f776e65722063616e2061636365737360581b60448201526064015b60405180910390fd5b60018054604080516060810182528481525f6020820181905291810182905282840184559290528151909190600383027fb10e2d527612073b26eecdfd717e6a320cf44b4afac2b0732d9fcbe2b7fa0cf601908190610280908261076e565b5060208201518160010155604082015181600201555050807f9c770c289ab5bf7e57cb1d23c8ceae993aea46eb64847072fd3d78ca60d3e432836040516102c79190610829565b60405180910390a25050565b600154821061031a5760405162461bcd60e51b8152602060048201526013602482015272125b9d985b1a59081c1c9bdc1bdcd85b081251606a1b6044820152606401610218565b5f82815260026020818152604080842033855290915282205460ff1690811115610346576103466106b0565b146103a45760405162461bcd60e51b815260206004820152602860248201527f596f75206861766520616c726561647920766f74656420666f72207468697320604482015267141c9bdc1bdcd85b60c21b6064820152608401610218565b60018160028111156103b8576103b86106b0565b14806103d5575060028160028111156103d3576103d36106b0565b145b6104125760405162461bcd60e51b815260206004820152600e60248201526d496e76616c69642043686f69636560901b6044820152606401610218565b5f8281526002602081815260408084203385529091529091208054839260ff1990911690600190849081111561044a5761044a6106b0565b02179055506001816002811115610463576104636106b0565b036104a457600180838154811061047c5761047c610842565b905f5260205f2090600302016001015f8282546104999190610856565b909155506104db9050565b60018083815481106104b8576104b8610842565b905f5260205f2090600302016002015f8282546104d59190610856565b90915550505b81336001600160a01b03167fcc66c27f993ef125e1b985d84a52726edc66dcc64e94d172f80253e37d5263728360405161051591906106c4565b60405180910390a35050565b5f60208284031215610531575f5ffd5b5035919050565b5f81518084528060208401602086015e5f602082860101526020601f19601f83011685010191505092915050565b606081525f6105786060830186610538565b60208301949094525060400152919050565b634e487b7160e01b5f52604160045260245ffd5b5f602082840312156105ae575f5ffd5b813567ffffffffffffffff8111156105c4575f5ffd5b8201601f810184136105d4575f5ffd5b803567ffffffffffffffff8111156105ee576105ee61058a565b604051601f8201601f19908116603f0116810167ffffffffffffffff8111828210171561061d5761061d61058a565b604052818152828201602001861015610634575f5ffd5b816020840160208301375f91810160200191909152949350505050565b5f5f60408385031215610662575f5ffd5b82359150602083013560038110610677575f5ffd5b809150509250929050565b5f5f60408385031215610693575f5ffd5b8235915060208301356001600160a01b0381168114610677575f5ffd5b634e487b7160e01b5f52602160045260245ffd5b60208101600383106106e457634e487b7160e01b5f52602160045260245ffd5b91905290565b600181811c908216806106fe57607f821691505b60208210810361071c57634e487b7160e01b5f52602260045260245ffd5b50919050565b601f82111561076957805f5260205f20601f840160051c810160208510156107475750805b601f840160051c820191505b81811015610766575f8155600101610753565b50505b505050565b815167ffffffffffffffff8111156107885761078861058a565b61079c8161079684546106ea565b84610722565b6020601f8211600181146107ce575f83156107b75750848201515b5f19600385901b1c1916600184901b178455610766565b5f84815260208120601f198516915b828110156107fd57878501518255602094850194600190920191016107dd565b508482101561081a57868401515f19600387901b60f8161c191681555b50505050600190811b01905550565b602081525f61083b6020830184610538565b9392505050565b634e487b7160e01b5f52603260045260245ffd5b8082018082111561087557634e487b7160e01b5f52601160045260245ffd5b9291505056fea264697066735822122062f0f71d61c61811bbb9798d584291282d3bd344b58d2956e0a7a5f82ef2a88364736f6c634300081c0033",
  "linkReferences": {},
  "deployedLinkReferences": {},
  "immutableReferences": {},
  "inputSourceName": "project/contracts/Polling.sol",
  "buildInfoId": "solc-0_8_28-9c2745ccc03a0013e7268ab01f88beae98e688a5"
}