{
  "_format": "hh3-artifact-1",
  "contractName": "Polling",
  "sourceName": "contracts/Polling.sol",
  "abi": [
    {
      "inputs": [],
      "stateMutability": "nonpayable",
      "type": "constructor"
    },
    {
      "anonymous": false,
      "inputs": [
        {
          "indexed": true,
          "internalType": "uint256",
          "name": "proposalId",
          "type": "uint256"
        },
        {
          "indexed": false,
          "internalType": "string",
          "name": "description",
          "type": "string"
        }
      ],
      "name": "ProposalCreated",
      "type": "event"
    },
    {
      "anonymous": false,
      "inputs": [
        {
          "indexed": true,
          "internalType": "address",
          "name": "voter",
          "type": "address"
        },
        {
          "indexed": true,
          "internalType": "uint256",
          "name": "_proposalIdVotedFor",
          "type": "uint256"
        },
        {
          "indexed": false,
          "internalType": "enum Polling.VoteOptions",
          "name": "choice",
          "type": "uint8"
        }
      ],
      "name": "Voted",
      "type": "event"
    },
    {
      "inputs": [
        {
          "internalType": "string",
          "name": "_description",
          "type": "string"
        }
      ],
      "name": "addProposal",
      "outputs": [],
      "stateMutability": "nonpayable",
      "type": "function"
    },
    {
      "inputs": [],
      "name": "getProposalCount",
      "outputs": [
        {
          "internalType": "uint256",
          "name": "",
          "type": "uint256"
        }
      ],
      "stateMutability": "view",
      "type": "function"
    },
    {
      "inputs": [],
      "name": "owner",
      "outputs": [
        {
          "internalType": "address",
          "name": "",
          "type": "address"
        }
      ],
      "stateMutability": "view",
      "type": "function"
    },
    {
      "inputs": [
        {
          "internalType": "uint256",
          "name": "",
          "type": "uint256"
        }
      ],
      "name": "proposals",
      "outputs": [
        {
          "internalType": "string",
          "name": "description",
          "type": "string"
        },
        {
          "internalType": "uint256",
          "name": "yesCount",
          "type": "uint256"
        },
        {
          "internalType": "uint256",
          "name": "noCount",
          "type": "uint256"
        }
      ],
      "stateMutability": "view",
      "type": "function"
    },
    {
      "inputs": [
        {
          "internalType": "uint256",
          "name": "_proposalId",
          "type": "uint256"
        },
        {
          "internalType": "enum Polling.VoteOptions",
          "name": "_choice",
          "type": "uint8"
        }
      ],
      "name": "vote",
      "outputs": [],
      "stateMutability": "nonpayable",
      "type": "function"
    },
    {
      "inputs": [
        {
          "internalType": "uint256",
          "name": "",
          "type": "uint256"
        },
        {
          "internalType": "address",
          "name": "",
          "type": "address"
        }
      ],
      "name": "votes",
      "outputs": [
        {
          "internalType": "enum Polling.VoteOptions",
          "name": "",
          "type": "uint8"
        }
      ],
      "stateMutability": "view",
      "type": "function"
    }
  ],
  "bytecode": "0x6080604052348015600e575f5ffd5b505f80546001600160a01b031916331790556108cd8061002d5f395ff3fe608060405234801561000f575f5ffd5b5060043610610060575f3560e01c8063013cf08b146100645780632fdae3c51461008f5780638da5cb5b146100a4578063943e8216146100ce578063c08cc02d146100e1578063d23254b4146100f2575b5f5ffd5b61007761007236600461053d565b61012c565b60405161008693929190610582565b60405180910390f35b6100a261009d3660046105ba565b6101e7565b005b5f546100b6906001600160a01b031681565b6040516001600160a01b039091168152602001610086565b6100a26100dc36600461066d565b6102ef565b600154604051908152602001610086565b61011f61010036600461069e565b600260209081525f928352604080842090915290825290205460ff1681565b60405161008691906106e0565b6001818154811061013b575f80fd5b905f5260205f2090600302015f91509050805f01805461015a90610706565b80601f016020809104026020016040519081016040528092919081815260200182805461018690610706565b80156101d15780601f106101a8576101008083540402835291602001916101d1565b820191905f5260205f20905b8154815290600101906020018083116101b457829003601f168201915b5050505050908060010154908060020154905083565b5f546001600160a01b0316331461023d5760405162461bcd60e51b81526020600482015260156024820152744f6e6c79206f776e65722063616e2061636365737360581b60448201526064015b60405180910390fd5b60018054604080516060810182528481525f6020820181905291810182905282840184559290528151909190600383027fb10e2d527612073b26eecdfd717e6a320cf44b4afac2b0732d9fcbe2b7fa0cf60190819061029c908261078a565b5060208201518160010155604082015181600201555050807f9c770c289ab5bf7e57cb1d23c8ceae993aea46eb64847072fd3d78ca60d3e432836040516102e39190610845565b60405180910390a25050565b60015482106103365760405162461bcd60e51b8152602060048201526013602482015272125b9d985b1a59081c1c9bdc1bdcd85b081251606a1b6044820152606401610234565b5f82815260026020818152604080842033855290915282205460ff1690811115610362576103626106cc565b146103c05760405162461bcd60e51b815260206004820152602860248201527f596f75206861766520616c726561647920766f74656420666f72207468697320604482015267141c9bdc1bdcd85b60c21b6064820152608401610234565b60018160028111156103d4576103d46106cc565b14806103f1575060028160028111156103ef576103ef6106cc565b145b61042e5760405162461bcd60e51b815260206004820152600e60248201526d496e76616c69642043686f69636560901b6044820152606401610234565b5f8281526002602081815260408084203385529091529091208054839260ff19909116906001908490811115610466576104666106cc565b0217905550600181600281111561047f5761047f6106cc565b036104c05760018083815481106104985761049861085e565b905f5260205f2090600302016001015f8282546104b59190610872565b909155506104f79050565b60018083815481106104d4576104d461085e565b905f5260205f2090600302016002015f8282546104f19190610872565b90915550505b81336001600160a01b03167fcc66c27f993ef125e1b985d84a52726edc66dcc64e94d172f80253e37d5263728360405161053191906106e0565b60405180910390a35050565b5f6020828403121561054d575f5ffd5b5035919050565b5f81518084528060208401602086015e5f602082860101526020601f19601f83011685010191505092915050565b606081525f6105946060830186610554565b60208301949094525060400152919050565b634e487b7160e01b5f52604160045260245ffd5b5f602082840312156105ca575f5ffd5b813567ffffffffffffffff8111156105e0575f5ffd5b8201601f810184136105f0575f5ffd5b803567ffffffffffffffff81111561060a5761060a6105a6565b604051601f8201601f19908116603f0116810167ffffffffffffffff81118282101715610639576106396105a6565b604052818152828201602001861015610650575f5ffd5b816020840160208301375f91810160200191909152949350505050565b5f5f6040838503121561067e575f5ffd5b82359150602083013560038110610693575f5ffd5b809150509250929050565b5f5f604083850312156106af575f5ffd5b8235915060208301356001600160a01b0381168114610693575f5ffd5b634e487b7160e01b5f52602160045260245ffd5b602081016003831061070057634e487b7160e01b5f52602160045260245ffd5b91905290565b600181811c9082168061071a57607f821691505b60208210810361073857634e487b7160e01b5f52602260045260245ffd5b50919050565b601f82111561078557805f5260205f20601f840160051c810160208510156107635750805b601f840160051c820191505b81811015610782575f815560010161076f565b50505b505050565b815167ffffffffffffffff8111156107a4576107a46105a6565b6107b8816107b28454610706565b8461073e565b6020601f8211600181146107ea575f83156107d35750848201515b5f19600385901b1c1916600184901b178455610782565b5f84815260208120601f198516915b8281101561081957878501518255602094850194600190920191016107f9565b508482101561083657868401515f19600387901b60f8161c191681555b50505050600190811b01905550565b602081525f6108576020830184610554565b9392505050565b634e487b7160e01b5f52603260045260245ffd5b8082018082111561089157634e487b7160e01b5f52601160045260245ffd5b9291505056fea2646970667358221220fc3358633b003a34f585dc9e37bc65770ac9489a942507c063b46f457386db7164736f6c634300081c0033",
  "linkReferences": {},
  "deployedLinkReferences": {},
  "immutableReferences": {},
  "inputSourceName": "project/contracts/Polling.sol",
  "buildInfoId": "solc-0_8_28-49c8573b6e3d524e9446e15ffbcd10241775f320"
}